:020000040000FA
:040000008DEF01F08F
:020008001000E6
:080018001000140E016EFA0E37
:10002000006E000000000000000000000000000062
:1000300000000000000000000000000000000000C0
:1000400000000000002EEDD7012EE9D712001E0E91
:10005000016EFA0E006E00000000000000000000BB
:100060000000000000000000000000000000000090
:100070000000000000000000000000000000000080
:100080000000000000000000000000000000000070
:100090000000000000000000000000000000000060
:1000A0000000000000000000000000000000000050
:1000B0000000000000000000000000000000000040
:1000C0000000000000000000000000000000000030
:1000D0000000000000000000000000000000000020
:1000E0000000000000000000000000000000000010
:1000F0000000000000000000000000000000000000
:1001000000000000000000000000000000000000EF
:1001100000000000000000000000000000000000DF
:1001200000000000000000000000000000000000CF
:1001300000000000000000000000000000000000BF
:1001400000000000000000000000000000000000AF
:10015000000000000000000000000000000000009F
:10016000000000000000000000000000000000008F
:10017000000000000000000000000000000000007F
:10018000000000000000000000000000000000006F
:10019000000000000000000000000000000000005F
:1001A000000000000000000000000000000000004F
:1001B000000000000000000000000000000000003F
:1001C000000000000000000000000000000000002F
:1001D000000000000000000000000000000000001F
:1001E000000000000000000000000000000000000F
:1001F00000000000000000000000000000000000FF
:1002000000000000000000000000000000000000EE
:1002100000000000000000000000000000000000DE
:1002200000000000000000000000000000000000CE
:1002300000000000000000000000000000000000BE
:1002400000000000002E07D7012E03D7120082986D
:10025000829A828C0DEC00F0829C12008288829A35
:10026000828C0DEC00F0829C1200010E836E27EC54
:1002700001F01200490E836E2EEC01F04B0E836EDE
:100280002EEC01F04D0E836E2EEC01F0410E836ECC
:100290002EEC01F04C0E836E2EEC01F01200420E9B
:1002A000836E2EEC01F0410E836E2EEC01F04E0EAB
:1002B000836E2EEC01F0470E836E2EEC01F0490E9A
:1002C000836E2EEC01F01200320E836E2EEC01F0E4
:1002D000330E836E2EEC01F02F0E836E2EEC01F0A8
:1002E000310E836E2EEC01F0310E836E2EEC01F098
:1002F0002F0E836E2EEC01F0320E836E2EEC01F089
:10030000300E836E2EEC01F0300E836E2EEC01F079
:10031000310E836E2EEC01F012000E0E936E030E62
:10032000946E956A9380380E836E27EC01F00F0E61
:10033000836E27EC01F0010E836E27EC01F082A0A2
:1003400007D03AEC01F027EC00F035EC01F000D0DA
:1003500082A207D04FEC01F027EC00F035EC01F061
:1003600000D081A0ECD764EC01F027EC00F035EC74
:0603700001F0E5D71200C8
:00000001FF
